{
  "contractName": "supplyChain",
  "abi": [
    {
      "anonymous": false,
      "inputs": [
        {
          "indexed": false,
          "internalType": "uint32",
          "name": "productId",
          "type": "uint32"
        }
      ],
      "name": "TransferOwnership",
      "type": "event"
    },
    {
      "inputs": [],
      "name": "owner_id",
      "outputs": [
        {
          "internalType": "uint32",
          "name": "",
          "type": "uint32"
        }
      ],
      "stateMutability": "view",
      "type": "function"
    },
    {
      "inputs": [
        {
          "internalType": "uint32",
          "name": "",
          "type": "uint32"
        }
      ],
      "name": "ownerships",
      "outputs": [
        {
          "internalType": "uint32",
          "name": "productId",
          "type": "uint32"
        },
        {
          "internalType": "uint32",
          "name": "ownerId",
          "type": "uint32"
        },
        {
          "internalType": "uint32",
          "name": "trxTimeStamp",
          "type": "uint32"
        },
        {
          "internalType": "address",
          "name": "productOwner",
          "type": "address"
        }
      ],
      "stateMutability": "view",
      "type": "function"
    },
    {
      "inputs": [
        {
          "internalType": "uint32",
          "name": "",
          "type": "uint32"
        }
      ],
      "name": "participants",
      "outputs": [
        {
          "internalType": "string",
          "name": "userName",
          "type": "string"
        },
        {
          "internalType": "string",
          "name": "password",
          "type": "string"
        },
        {
          "internalType": "string",
          "name": "participantType",
          "type": "string"
        },
        {
          "internalType": "address",
          "name": "participantAdderss",
          "type": "address"
        }
      ],
      "stateMutability": "view",
      "type": "function"
    },
    {
      "inputs": [],
      "name": "partipant_id",
      "outputs": [
        {
          "internalType": "uint32",
          "name": "",
          "type": "uint32"
        }
      ],
      "stateMutability": "view",
      "type": "function"
    },
    {
      "inputs": [
        {
          "internalType": "uint32",
          "name": "",
          "type": "uint32"
        },
        {
          "internalType": "uint256",
          "name": "",
          "type": "uint256"
        }
      ],
      "name": "productTrack",
      "outputs": [
        {
          "internalType": "uint32",
          "name": "",
          "type": "uint32"
        }
      ],
      "stateMutability": "view",
      "type": "function"
    },
    {
      "inputs": [],
      "name": "product_id",
      "outputs": [
        {
          "internalType": "uint32",
          "name": "",
          "type": "uint32"
        }
      ],
      "stateMutability": "view",
      "type": "function"
    },
    {
      "inputs": [
        {
          "internalType": "uint32",
          "name": "",
          "type": "uint32"
        }
      ],
      "name": "products",
      "outputs": [
        {
          "internalType": "string",
          "name": "modelNumber",
          "type": "string"
        },
        {
          "internalType": "string",
          "name": "partNumber",
          "type": "string"
        },
        {
          "internalType": "string",
          "name": "serialNumber",
          "type": "string"
        },
        {
          "internalType": "address",
          "name": "productOwner",
          "type": "address"
        },
        {
          "internalType": "uint32",
          "name": "cost",
          "type": "uint32"
        },
        {
          "internalType": "uint32",
          "name": "mfgTimeStamp",
          "type": "uint32"
        }
      ],
      "stateMutability": "view",
      "type": "function"
    },
    {
      "inputs": [
        {
          "internalType": "string",
          "name": "_name",
          "type": "string"
        },
        {
          "internalType": "string",
          "name": "_pass",
          "type": "string"
        },
        {
          "internalType": "address",
          "name": "_pAdd",
          "type": "address"
        },
        {
          "internalType": "string",
          "name": "_pType",
          "type": "string"
        }
      ],
      "name": "addParticipant",
      "outputs": [
        {
          "internalType": "uint32",
          "name": "",
          "type": "uint32"
        }
      ],
      "stateMutability": "nonpayable",
      "type": "function"
    },
    {
      "inputs": [
        {
          "internalType": "uint32",
          "name": "_product_id",
          "type": "uint32"
        }
      ],
      "name": "getParticipant",
      "outputs": [
        {
          "internalType": "string",
          "name": "",
          "type": "string"
        },
        {
          "internalType": "address",
          "name": "",
          "type": "address"
        },
        {
          "internalType": "string",
          "name": "",
          "type": "string"
        }
      ],
      "stateMutability": "view",
      "type": "function"
    },
    {
      "inputs": [
        {
          "internalType": "uint32",
          "name": "_ownerId",
          "type": "uint32"
        },
        {
          "internalType": "string",
          "name": "_modelNumber",
          "type": "string"
        },
        {
          "internalType": "string",
          "name": "_partNumber",
          "type": "string"
        },
        {
          "internalType": "string",
          "name": "_seriaNumber",
          "type": "string"
        },
        {
          "internalType": "uint32",
          "name": "_productCost",
          "type": "uint32"
        }
      ],
      "name": "addProduct",
      "outputs": [
        {
          "internalType": "uint32",
          "name": "",
          "type": "uint32"
        }
      ],
      "stateMutability": "nonpayable",
      "type": "function"
    },
    {
      "inputs": [
        {
          "internalType": "uint32",
          "name": "_productId",
          "type": "uint32"
        }
      ],
      "name": "getProduct",
      "outputs": [
        {
          "internalType": "string",
          "name": "",
          "type": "string"
        },
        {
          "internalType": "string",
          "name": "",
          "type": "string"
        },
        {
          "internalType": "string",
          "name": "",
          "type": "string"
        },
        {
          "internalType": "uint32",
          "name": "",
          "type": "uint32"
        },
        {
          "internalType": "address",
          "name": "",
          "type": "address"
        },
        {
          "internalType": "uint32",
          "name": "",
          "type": "uint32"
        }
      ],
      "stateMutability": "view",
      "type": "function"
    },
    {
      "inputs": [
        {
          "internalType": "uint32",
          "name": "_user1Id",
          "type": "uint32"
        },
        {
          "internalType": "uint32",
          "name": "_user2Id",
          "type": "uint32"
        },
        {
          "internalType": "uint32",
          "name": "_prodId",
          "type": "uint32"
        }
      ],
      "name": "newOwner",
      "outputs": [
        {
          "internalType": "bool",
          "name": "",
          "type": "bool"
        }
      ],
      "stateMutability": "nonpayable",
      "type": "function"
    },
    {
      "inputs": [
        {
          "internalType": "uint32",
          "name": "_prodId",
          "type": "uint32"
        }
      ],
      "name": "getProvenance",
      "outputs": [
        {
          "internalType": "uint32[]",
          "name": "",
          "type": "uint32[]"
        }
      ],
      "stateMutability": "view",
      "type": "function"
    },
    {
      "inputs": [
        {
          "internalType": "uint32",
          "name": "_regId",
          "type": "uint32"
        }
      ],
      "name": "getOwnership",
      "outputs": [
        {
          "internalType": "uint32",
          "name": "",
          "type": "uint32"
        },
        {
          "internalType": "uint32",
          "name": "",
          "type": "uint32"
        },
        {
          "internalType": "address",
          "name": "",
          "type": "address"
        },
        {
          "internalType": "uint32",
          "name": "",
          "type": "uint32"
        }
      ],
      "stateMutability": "view",
      "type": "function"
    },
    {
      "inputs": [
        {
          "internalType": "uint32",
          "name": "_uid",
          "type": "uint32"
        },
        {
          "internalType": "string",
          "name": "_uname",
          "type": "string"
        },
        {
          "internalType": "string",
          "name": "_pass",
          "type": "string"
        },
        {
          "internalType": "string",
          "name": "_utype",
          "type": "string"
        }
      ],
      "name": "aythenticateParticipant",
      "outputs": [
        {
          "internalType": "bool",
          "name": "",
          "type": "bool"
        }
      ],
      "stateMutability": "view",
      "type": "function"
    }
  ],
  "bytecode": "0x608060405260008060006101000a81548163ffffffff021916908363ffffffff16021790555060008060046101000a81548163ffffffff021916908363ffffffff16021790555060008060086101000a81548163ffffffff021916908363ffffffff16021790555034801561007357600080fd5b5061392c806100836000396000f3fe608060405234801561001057600080fd5b50600436106100f55760003560e01c806381e1561011610097578063c856956511610066578063c856956514610d0b578063df6d23f114610d94578063eab0a47914610e19578063ebf43a7e14610e3d576100f5565b806381e15610146108ea5780638f5ebf711461096f578063a638ac4914610993578063bf712fd614610b4f576100f5565b806350632104116100d357806350632104146102f257806361226fe31461051557806370528a3d146107245780637d0a9ac914610748576100f5565b80631a074802146100fa5780632e9d5284146101525780633b26a65d146101bc575b600080fd5b6101366004803603604081101561011057600080fd5b81019080803563ffffffff16906020019092919080359060200190929190505050611060565b604051808263ffffffff16815260200191505060405180910390f35b6101a46004803603606081101561016857600080fd5b81019080803563ffffffff169060200190929190803563ffffffff169060200190929190803563ffffffff1690602001909291905050506110a6565b60405180821515815260200191505060405180910390f35b6101ee600480360360208110156101d257600080fd5b81019080803563ffffffff16906020019092919050505061248c565b60405180806020018473ffffffffffffffffffffffffffffffffffffffff16815260200180602001838103835286818151815260200191508051906020019080838360005b8381101561024e578082015181840152602081019050610233565b50505050905090810190601f16801561027b5780820380516001836020036101000a031916815260200191505b50838103825284818151815260200191508051906020019080838360005b838110156102b4578082015181840152602081019050610299565b50505050905090810190601f1680156102e15780820380516001836020036101000a031916815260200191505b509550505050505060405180910390f35b6104f9600480360360a081101561030857600080fd5b81019080803563ffffffff1690602001909291908035906020019064010000000081111561033557600080fd5b82018360208201111561034757600080fd5b8035906020019184600183028401116401000000008311171561036957600080fd5b91908080601f016020809104026020016040519081016040528093929190818152602001838380828437600081840152601f19601f820116905080830192505050505050509192919290803590602001906401000000008111156103cc57600080fd5b8201836020820111156103de57600080fd5b8035906020019184600183028401116401000000008311171561040057600080fd5b91908080601f016020809104026020016040519081016040528093929190818152602001838380828437600081840152601f19601f8201169050808301925050505050505091929192908035906020019064010000000081111561046357600080fd5b82018360208201111561047557600080fd5b8035906020019184600183028401116401000000008311171561049757600080fd5b91908080601f016020809104026020016040519081016040528093929190818152602001838380828437600081840152601f19601f820116905080830192505050505050509192919290803563ffffffff16906020019092919050505061265e565b604051808263ffffffff16815260200191505060405180910390f35b61070c6004803603608081101561052b57600080fd5b81019080803563ffffffff1690602001909291908035906020019064010000000081111561055857600080fd5b82018360208201111561056a57600080fd5b8035906020019184600183028401116401000000008311171561058c57600080fd5b91908080601f016020809104026020016040519081016040528093929190818152602001838380828437600081840152601f19601f820116905080830192505050505050509192919290803590602001906401000000008111156105ef57600080fd5b82018360208201111561060157600080fd5b8035906020019184600183028401116401000000008311171561062357600080fd5b91908080601f016020809104026020016040519081016040528093929190818152602001838380828437600081840152601f19601f8201169050808301925050505050505091929192908035906020019064010000000081111561068657600080fd5b82018360208201111561069857600080fd5b803590602001918460018302840111640100000000831117156106ba57600080fd5b91908080601f016020809104026020016040519081016040528093929190818152602001838380828437600081840152601f19601f820116905080830192505050505050509192919290505050612940565b60405180821515815260200191505060405180910390f35b61072c612c93565b604051808263ffffffff16815260200191505060405180910390f35b61077a6004803603602081101561075e57600080fd5b81019080803563ffffffff169060200190929190505050612ca9565b604051808060200180602001806020018573ffffffffffffffffffffffffffffffffffffffff168152602001848103845288818151815260200191508051906020019080838360005b838110156107de5780820151818401526020810190506107c3565b50505050905090810190601f16801561080b5780820380516001836020036101000a031916815260200191505b50848103835287818151815260200191508051906020019080838360005b83811015610844578082015181840152602081019050610829565b50505050905090810190601f1680156108715780820380516001836020036101000a031916815260200191505b50848103825286818151815260200191508051906020019080838360005b838110156108aa57808201518184015260208101905061088f565b50505050905090810190601f1680156108d75780820380516001836020036101000a031916815260200191505b5097505050505050505060405180910390f35b61091c6004803603602081101561090057600080fd5b81019080803563ffffffff169060200190929190505050612ec1565b604051808563ffffffff1681526020018463ffffffff1681526020018363ffffffff1681526020018273ffffffffffffffffffffffffffffffffffffffff16815260200194505050505060405180910390f35b610977612f41565b604051808263ffffffff16815260200191505060405180910390f35b6109c5600480360360208110156109a957600080fd5b81019080803563ffffffff169060200190929190505050612f57565b604051808060200180602001806020018763ffffffff1681526020018673ffffffffffffffffffffffffffffffffffffffff1681526020018563ffffffff16815260200184810384528a818151815260200191508051906020019080838360005b83811015610a41578082015181840152602081019050610a26565b50505050905090810190601f168015610a6e5780820380516001836020036101000a031916815260200191505b50848103835289818151815260200191508051906020019080838360005b83811015610aa7578082015181840152602081019050610a8c565b50505050905090810190601f168015610ad45780820380516001836020036101000a031916815260200191505b50848103825288818151815260200191508051906020019080838360005b83811015610b0d578082015181840152602081019050610af2565b50505050905090810190601f168015610b3a5780820380516001836020036101000a031916815260200191505b50995050505050505050505060405180910390f35b610b8160048036036020811015610b6557600080fd5b81019080803563ffffffff169060200190929190505050613259565b604051808060200180602001806020018773ffffffffffffffffffffffffffffffffffffffff1681526020018663ffffffff1681526020018563ffffffff16815260200184810384528a818151815260200191508051906020019080838360005b83811015610bfd578082015181840152602081019050610be2565b50505050905090810190601f168015610c2a5780820380516001836020036101000a031916815260200191505b50848103835289818151815260200191508051906020019080838360005b83811015610c63578082015181840152602081019050610c48565b50505050905090810190601f168015610c905780820380516001836020036101000a031916815260200191505b50848103825288818151815260200191508051906020019080838360005b83811015610cc9578082015181840152602081019050610cae565b50505050905090810190601f168015610cf65780820380516001836020036101000a031916815260200191505b50995050505050505050505060405180910390f35b610d3d60048036036020811015610d2157600080fd5b81019080803563ffffffff16906020019092919050505061349d565b6040518080602001828103825283818151815260200191508051906020019060200280838360005b83811015610d80578082015181840152602081019050610d65565b505050509050019250505060405180910390f35b610dc660048036036020811015610daa57600080fd5b81019080803563ffffffff169060200190929190505050613540565b604051808563ffffffff1681526020018463ffffffff1681526020018373ffffffffffffffffffffffffffffffffffffffff1681526020018263ffffffff16815260200194505050505060405180910390f35b610e21613666565b604051808263ffffffff16815260200191505060405180910390f35b61104460048036036080811015610e5357600080fd5b8101908080359060200190640100000000811115610e7057600080fd5b820183602082011115610e8257600080fd5b80359060200191846001830284011164010000000083111715610ea457600080fd5b91908080601f016020809104026020016040519081016040528093929190818152602001838380828437600081840152601f19601f82011690508083019250505050505050919291929080359060200190640100000000811115610f0757600080fd5b820183602082011115610f1957600080fd5b80359060200191846001830284011164010000000083111715610f3b57600080fd5b91908080601f016020809104026020016040519081016040528093929190818152602001838380828437600081840152601f19601f820116905080830192505050505050509192919290803573ffffffffffffffffffffffffffffffffffffffff16906020019092919080359060200190640100000000811115610fbe57600080fd5b820183602082011115610fd057600080fd5b80359060200191846001830284011164010000000083111715610ff257600080fd5b91908080601f016020809104026020016040519081016040528093929190818152602001838380828437600081840152601f19601f82011690508083019250505050505050919291929050505061367a565b604051808263ffffffff16815260200191505060405180910390f35b6004602052816000526040600020818154811061107957fe5b9060005260206000209060089182820401919006600402915091509054906101000a900463ffffffff1681565b600081600160008263ffffffff1663ffffffff16815260200190815260200160002060030160009054906101000a900473ffffffffffffffffffffffffffffffffffffffff1673ffffffffffffffffffffffffffffffffffffffff163373ffffffffffffffffffffffffffffffffffffffff1614611167576040517f08c379a0000000000000000000000000000000000000000000000000000000008152600401808060200182810382526000815260200160200191505060405180910390fd5b61116f6137cb565b600260008763ffffffff1663ffffffff168152602001908152602001600020604051806080016040529081600082018054600181600116156101000203166002900480601f0160208091040260200160405190810160405280929190818152602001828054600181600116156101000203166002900480156112325780601f1061120757610100808354040283529160200191611232565b820191906000526020600020905b81548152906001019060200180831161121557829003601f168201915b50505050508152602001600182018054600181600116156101000203166002900480601f0160208091040260200160405190810160405280929190818152602001828054600181600116156101000203166002900480156112d45780601f106112a9576101008083540402835291602001916112d4565b820191906000526020600020905b8154815290600101906020018083116112b757829003601f168201915b50505050508152602001600282018054600181600116156101000203166002900480601f0160208091040260200160405190810160405280929190818152602001828054600181600116156101000203166002900480156113765780601f1061134b57610100808354040283529160200191611376565b820191906000526020600020905b81548152906001019060200180831161135957829003601f168201915b505050505081526020016003820160009054906101000a900473ffffffffffffffffffffffffffffffffffffffff1673ffffffffffffffffffffffffffffffffffffffff1673ffffffffffffffffffffffffffffffffffffffff168152505090506113df6137cb565b600260008763ffffffff1663ffffffff168152602001908152602001600020604051806080016040529081600082018054600181600116156101000203166002900480601f0160208091040260200160405190810160405280929190818152602001828054600181600116156101000203166002900480156114a25780601f10611477576101008083540402835291602001916114a2565b820191906000526020600020905b81548152906001019060200180831161148557829003601f168201915b50505050508152602001600182018054600181600116156101000203166002900480601f0160208091040260200160405190810160405280929190818152602001828054600181600116156101000203166002900480156115445780601f1061151957610100808354040283529160200191611544565b820191906000526020600020905b81548152906001019060200180831161152757829003601f168201915b50505050508152602001600282018054600181600116156101000203166002900480601f0160208091040260200160405190810160405280929190818152602001828054600181600116156101000203166002900480156115e65780601f106115bb576101008083540402835291602001916115e6565b820191906000526020600020905b8154815290600101906020018083116115c957829003601f168201915b505050505081526020016003820160009054906101000a900473ffffffffffffffffffffffffffffffffffffffff1673ffffffffffffffffffffffffffffffffffffffff1673ffffffffffffffffffffffffffffffffffffffff16815250509050600080600881819054906101000a900463ffffffff168092919060010191906101000a81548163ffffffff021916908363ffffffff16021790555090507f37ab20b0b9b7603d46ac9beda6418de3386ea0b9b7921a4a1b2cecd878035f0883604001516040516020018082805190602001908083835b602083106116e057805182526020820191506020810190506020830392506116bd565b6001836020036101000a038019825116818451168082178552505050505050905001915050604051602081830303815290604052805190602001201480156117bc57507f0586ae0d0ac27a5741f084ee3fc8fa53aae7e93065f434a5e0687a79ae81df0e82604001516040516020018082805190602001908083835b6020831061177f578051825260208201915060208101905060208303925061175c565b6001836020036101000a03801982511681845116808217855250505050505090500191505060405160208183030381529060405280519060200120145b15611a025785600360008363ffffffff1663ffffffff16815260200190815260200160002060000160006101000a81548163ffffffff021916908363ffffffff1602179055508160600151600360008363ffffffff1663ffffffff168152602001908152602001600020600001600c6101000a81548173ffffffffffffffffffffffffffffffffffffffff021916908373ffffffffffffffffffffffffffffffffffffffff16021790555086600360008363ffffffff1663ffffffff16815260200190815260200160002060000160046101000a81548163ffffffff021916908363ffffffff16021790555042600360008363ffffffff1663ffffffff16815260200190815260200160002060000160086101000a81548163ffffffff021916908363ffffffff1602179055508160600151600160008863ffffffff1663ffffffff16815260200190815260200160002060030160006101000a81548173ffffffffffffffffffffffffffffffffffffffff021916908373ffffffffffffffffffffffffffffffffffffffff160217905550600460008763ffffffff1663ffffffff1681526020019081526020016000208190806001815401808255809150506001900390600052602060002090600891828204019190066004029091909190916101000a81548163ffffffff021916908363ffffffff1602179055507fa5470ac012c6e9dc500e62b1d3de0de58db49b3ab7cfebbfb126d9abd854199b86604051808263ffffffff16815260200191505060405180910390a160019450505050612484565b7f0586ae0d0ac27a5741f084ee3fc8fa53aae7e93065f434a5e0687a79ae81df0e83604001516040516020018082805190602001908083835b60208310611a5e5780518252602082019150602081019050602083039250611a3b565b6001836020036101000a03801982511681845116808217855250505050505090500191505060405160208183030381529060405280519060200120148015611b3a57507f5f16f4c7f149ac4f9510d9cf8cf384038ad348b3bcdc01915f95de12df9d1b0282604001516040516020018082805190602001908083835b60208310611afd5780518252602082019150602081019050602083039250611ada565b6001836020036101000a03801982511681845116808217855250505050505090500191505060405160208183030381529060405280519060200120145b15611d805785600360008363ffffffff1663ffffffff16815260200190815260200160002060000160006101000a81548163ffffffff021916908363ffffffff1602179055508160600151600360008363ffffffff1663ffffffff168152602001908152602001600020600001600c6101000a81548173ffffffffffffffffffffffffffffffffffffffff021916908373ffffffffffffffffffffffffffffffffffffffff16021790555086600360008363ffffffff1663ffffffff16815260200190815260200160002060000160046101000a81548163ffffffff021916908363ffffffff16021790555042600360008363ffffffff1663ffffffff16815260200190815260200160002060000160086101000a81548163ffffffff021916908363ffffffff1602179055508160600151600160008863ffffffff1663ffffffff16815260200190815260200160002060030160006101000a81548173ffffffffffffffffffffffffffffffffffffffff021916908373ffffffffffffffffffffffffffffffffffffffff160217905550600460008763ffffffff1663ffffffff1681526020019081526020016000208190806001815401808255809150506001900390600052602060002090600891828204019190066004029091909190916101000a81548163ffffffff021916908363ffffffff1602179055507fa5470ac012c6e9dc500e62b1d3de0de58db49b3ab7cfebbfb126d9abd854199b86604051808263ffffffff16815260200191505060405180910390a160019450505050612484565b7f5f16f4c7f149ac4f9510d9cf8cf384038ad348b3bcdc01915f95de12df9d1b0283604001516040516020018082805190602001908083835b60208310611ddc5780518252602082019150602081019050602083039250611db9565b6001836020036101000a03801982511681845116808217855250505050505090500191505060405160208183030381529060405280519060200120148015611eb857507f168e92ce035ba45e59a0314b0ed9a9e619b284aed8f6e5ab0a596efd5c9f5cf982604001516040516020018082805190602001908083835b60208310611e7b5780518252602082019150602081019050602083039250611e58565b6001836020036101000a03801982511681845116808217855250505050505090500191505060405160208183030381529060405280519060200120145b156120fe5785600360008363ffffffff1663ffffffff16815260200190815260200160002060000160006101000a81548163ffffffff021916908363ffffffff1602179055508160600151600360008363ffffffff1663ffffffff168152602001908152602001600020600001600c6101000a81548173ffffffffffffffffffffffffffffffffffffffff021916908373ffffffffffffffffffffffffffffffffffffffff16021790555086600360008363ffffffff1663ffffffff16815260200190815260200160002060000160046101000a81548163ffffffff021916908363ffffffff16021790555042600360008363ffffffff1663ffffffff16815260200190815260200160002060000160086101000a81548163ffffffff021916908363ffffffff1602179055508160600151600160008863ffffffff1663ffffffff16815260200190815260200160002060030160006101000a81548173ffffffffffffffffffffffffffffffffffffffff021916908373ffffffffffffffffffffffffffffffffffffffff160217905550600460008763ffffffff1663ffffffff1681526020019081526020016000208190806001815401808255809150506001900390600052602060002090600891828204019190066004029091909190916101000a81548163ffffffff021916908363ffffffff1602179055507fa5470ac012c6e9dc500e62b1d3de0de58db49b3ab7cfebbfb126d9abd854199b86604051808263ffffffff16815260200191505060405180910390a160019450505050612484565b7f168e92ce035ba45e59a0314b0ed9a9e619b284aed8f6e5ab0a596efd5c9f5cf983604001516040516020018082805190602001908083835b6020831061215a5780518252602082019150602081019050602083039250612137565b6001836020036101000a0380198251168184511680821785525050505050509050019150506040516020818303038152906040528051906020012014801561223657507f9c1bfc34ea7e295ac684c026c6d4de765734cb6b37fa07330bcfc241743ebbaf82604001516040516020018082805190602001908083835b602083106121f957805182526020820191506020810190506020830392506121d6565b6001836020036101000a03801982511681845116808217855250505050505090500191505060405160208183030381529060405280519060200120145b1561247c5785600360008363ffffffff1663ffffffff16815260200190815260200160002060000160006101000a81548163ffffffff021916908363ffffffff1602179055508160600151600360008363ffffffff1663ffffffff168152602001908152602001600020600001600c6101000a81548173ffffffffffffffffffffffffffffffffffffffff021916908373ffffffffffffffffffffffffffffffffffffffff16021790555086600360008363ffffffff1663ffffffff16815260200190815260200160002060000160046101000a81548163ffffffff021916908363ffffffff16021790555042600360008363ffffffff1663ffffffff16815260200190815260200160002060000160086101000a81548163ffffffff021916908363ffffffff1602179055508160600151600160008863ffffffff1663ffffffff16815260200190815260200160002060030160006101000a81548173ffffffffffffffffffffffffffffffffffffffff021916908373ffffffffffffffffffffffffffffffffffffffff160217905550600460008763ffffffff1663ffffffff1681526020019081526020016000208190806001815401808255809150506001900390600052602060002090600891828204019190066004029091909190916101000a81548163ffffffff021916908363ffffffff1602179055507fa5470ac012c6e9dc500e62b1d3de0de58db49b3ab7cfebbfb126d9abd854199b86604051808263ffffffff16815260200191505060405180910390a160019450505050612484565b600094505050505b509392505050565b606060006060600260008563ffffffff1663ffffffff168152602001908152602001600020600001600260008663ffffffff1663ffffffff16815260200190815260200160002060030160009054906101000a900473ffffffffffffffffffffffffffffffffffffffff16600260008763ffffffff1663ffffffff168152602001908152602001600020600201828054600181600116156101000203166002900480601f0160208091040260200160405190810160405280929190818152602001828054600181600116156101000203166002900480156125ae5780601f10612583576101008083540402835291602001916125ae565b820191906000526020600020905b81548152906001019060200180831161259157829003601f168201915b50505050509250808054600181600116156101000203166002900480601f01602080910402602001604051908101604052809291908181526020018280546001816001161561010002031660029004801561264a5780601f1061261f5761010080835404028352916020019161264a565b820191906000526020600020905b81548152906001019060200180831161262d57829003601f168201915b505050505090509250925092509193909250565b60007f37ab20b0b9b7603d46ac9beda6418de3386ea0b9b7921a4a1b2cecd878035f08600260008863ffffffff1663ffffffff16815260200190815260200160002060020160405160200180828054600181600116156101000203166002900480156127015780601f106126df576101008083540402835291820191612701565b820191906000526020600020905b8154815290600101906020018083116126ed575b505091505060405160208183030381529060405280519060200120141561293257600080600081819054906101000a900463ffffffff168092919060010191906101000a81548163ffffffff021916908363ffffffff160217905550905085600160008363ffffffff1663ffffffff1681526020019081526020016000206000019080519060200190612795929190613809565b5084600160008363ffffffff1663ffffffff16815260200190815260200160002060010190805190602001906127cc929190613809565b5083600160008363ffffffff1663ffffffff1681526020019081526020016000206002019080519060200190612803929190613809565b5082600160008363ffffffff1663ffffffff16815260200190815260200160002060030160146101000a81548163ffffffff021916908363ffffffff160217905550600260008863ffffffff1663ffffffff16815260200190815260200160002060030160009054906101000a900473ffffffffffffffffffffffffffffffffffffffff16600160008363ffffffff1663ffffffff16815260200190815260200160002060030160006101000a81548173ffffffffffffffffffffffffffffffffffffffff021916908373ffffffffffffffffffffffffffffffffffffffff16021790555042600160008363ffffffff1663ffffffff16815260200190815260200160002060030160186101000a81548163ffffffff021916908363ffffffff16021790555080915050612937565b600090505b95945050505050565b6000816040516020018082805190602001908083835b602083106129795780518252602082019150602081019050602083039250612956565b6001836020036101000a03801982511681845116808217855250505050505090500191505060405160208183030381529060405280519060200120600260008763ffffffff1663ffffffff1681526020019081526020016000206002016040516020018082805460018160011615610100020316600290048015612a345780601f10612a12576101008083540402835291820191612a34565b820191906000526020600020905b815481529060010190602001808311612a20575b5050915050604051602081830303815290604052805190602001201415612c8657836040516020018082805190602001908083835b60208310612a8c5780518252602082019150602081019050602083039250612a69565b6001836020036101000a03801982511681845116808217855250505050505090500191505060405160208183030381529060405280519060200120600260008763ffffffff1663ffffffff1681526020019081526020016000206000016040516020018082805460018160011615610100020316600290048015612b475780601f10612b25576101008083540402835291820191612b47565b820191906000526020600020905b815481529060010190602001808311612b33575b5050915050604051602081830303815290604052805190602001201415612c8557826040516020018082805190602001908083835b60208310612b9f5780518252602082019150602081019050602083039250612b7c565b6001836020036101000a03801982511681845116808217855250505050505090500191505060405160208183030381529060405280519060200120600260008763ffffffff1663ffffffff1681526020019081526020016000206001016040516020018082805460018160011615610100020316600290048015612c5a5780601f10612c38576101008083540402835291820191612c5a565b820191906000526020600020905b815481529060010190602001808311612c46575b5050915050604051602081830303815290604052805190602001201415612c845760019050612c8b565b5b5b600090505b949350505050565b600060049054906101000a900463ffffffff1681565b6002602052806000526040600020600091509050806000018054600181600116156101000203166002900480601f016020809104026020016040519081016040528092919081815260200182805460018160011615610100020316600290048015612d555780601f10612d2a57610100808354040283529160200191612d55565b820191906000526020600020905b815481529060010190602001808311612d3857829003601f168201915b505050505090806001018054600181600116156101000203166002900480601f016020809104026020016040519081016040528092919081815260200182805460018160011615610100020316600290048015612df35780601f10612dc857610100808354040283529160200191612df3565b820191906000526020600020905b815481529060010190602001808311612dd657829003601f168201915b505050505090806002018054600181600116156101000203166002900480601f016020809104026020016040519081016040528092919081815260200182805460018160011615610100020316600290048015612e915780601f10612e6657610100808354040283529160200191612e91565b820191906000526020600020905b815481529060010190602001808311612e7457829003601f168201915b5050505050908060030160009054906101000a900473ffffffffffffffffffffffffffffffffffffffff16905084565b60036020528060005260406000206000915090508060000160009054906101000a900463ffffffff16908060000160049054906101000a900463ffffffff16908060000160089054906101000a900463ffffffff169080600001600c9054906101000a900473ffffffffffffffffffffffffffffffffffffffff16905084565b600060089054906101000a900463ffffffff1681565b60608060606000806000600160008863ffffffff1663ffffffff168152602001908152602001600020600001600160008963ffffffff1663ffffffff168152602001908152602001600020600101600160008a63ffffffff1663ffffffff168152602001908152602001600020600201600160008b63ffffffff1663ffffffff16815260200190815260200160002060030160149054906101000a900463ffffffff16600160008c63ffffffff1663ffffffff16815260200190815260200160002060030160009054906101000a900473ffffffffffffffffffffffffffffffffffffffff16600160008d63ffffffff1663ffffffff16815260200190815260200160002060030160189054906101000a900463ffffffff16858054600181600116156101000203166002900480601f0160208091040260200160405190810160405280929190818152602001828054600181600116156101000203166002900480156131055780601f106130da57610100808354040283529160200191613105565b820191906000526020600020905b8154815290600101906020018083116130e857829003601f168201915b50505050509550848054600181600116156101000203166002900480601f0160208091040260200160405190810160405280929190818152602001828054600181600116156101000203166002900480156131a15780601f10613176576101008083540402835291602001916131a1565b820191906000526020600020905b81548152906001019060200180831161318457829003601f168201915b50505050509450838054600181600116156101000203166002900480601f01602080910402602001604051908101604052809291908181526020018280546001816001161561010002031660029004801561323d5780601f106132125761010080835404028352916020019161323d565b820191906000526020600020905b81548152906001019060200180831161322057829003601f168201915b5050505050935095509550955095509550955091939550919395565b6001602052806000526040600020600091509050806000018054600181600116156101000203166002900480601f0160208091040260200160405190810160405280929190818152602001828054600181600116156101000203166002900480156133055780601f106132da57610100808354040283529160200191613305565b820191906000526020600020905b8154815290600101906020018083116132e857829003601f168201915b505050505090806001018054600181600116156101000203166002900480601f0160208091040260200160405190810160405280929190818152602001828054600181600116156101000203166002900480156133a35780601f10613378576101008083540402835291602001916133a3565b820191906000526020600020905b81548152906001019060200180831161338657829003601f168201915b505050505090806002018054600181600116156101000203166002900480601f0160208091040260200160405190810160405280929190818152602001828054600181600116156101000203166002900480156134415780601f1061341657610100808354040283529160200191613441565b820191906000526020600020905b81548152906001019060200180831161342457829003601f168201915b5050505050908060030160009054906101000a900473ffffffffffffffffffffffffffffffffffffffff16908060030160149054906101000a900463ffffffff16908060030160189054906101000a900463ffffffff16905086565b6060600460008363ffffffff1663ffffffff16815260200190815260200160002080548060200260200160405190810160405280929190818152602001828054801561353457602002820191906000526020600020906000905b82829054906101000a900463ffffffff1663ffffffff16815260200190600401906020826003010492830192600103820291508084116134f75790505b50505050509050919050565b60008060008061354e613889565b600360008763ffffffff1663ffffffff1681526020019081526020016000206040518060800160405290816000820160009054906101000a900463ffffffff1663ffffffff1663ffffffff1681526020016000820160049054906101000a900463ffffffff1663ffffffff1663ffffffff1681526020016000820160089054906101000a900463ffffffff1663ffffffff1663ffffffff16815260200160008201600c9054906101000a900473ffffffffffffffffffffffffffffffffffffffff1673ffffffffffffffffffffffffffffffffffffffff1673ffffffffffffffffffffffffffffffffffffffff1681525050905080600001518160200151826060015183604001519450945094509450509193509193565b60008054906101000a900463ffffffff1681565b6000806000600481819054906101000a900463ffffffff168092919060010191906101000a81548163ffffffff021916908363ffffffff160217905550905085600260008363ffffffff1663ffffffff16815260200190815260200160002060000190805190602001906136ef929190613809565b5084600260008363ffffffff1663ffffffff1681526020019081526020016000206001019080519060200190613726929190613809565b5083600260008363ffffffff1663ffffffff16815260200190815260200160002060030160006101000a81548173ffffffffffffffffffffffffffffffffffffffff021916908373ffffffffffffffffffffffffffffffffffffffff16021790555082600260008363ffffffff1663ffffffff16815260200190815260200160002060020190805190602001906137be929190613809565b5080915050949350505050565b6040518060800160405280606081526020016060815260200160608152602001600073ffffffffffffffffffffffffffffffffffffffff1681525090565b828054600181600116156101000203166002900490600052602060002090601f016020900481019282601f1061384a57805160ff1916838001178555613878565b82800160010185558215613878579182015b8281111561387757825182559160200191906001019061385c565b5b50905061388591906138d9565b5090565b6040518060800160405280600063ffffffff168152602001600063ffffffff168152602001600063ffffffff168152602001600073ffffffffffffffffffffffffffffffffffffffff1681525090565b5b808211156138f25760008160009055506001016138da565b509056fea2646970667358221220b785c87ab7e729b4bf93421adfb52048fa0f45356a91f8a55144ffa6ed5fbc0264736f6c63430007000033",
  "immutableReferences": {},
  "source": "// SPDX-License-Identifier: MIT\r\npragma solidity >=0.6.0;\r\n\r\ncontract supplyChain {\r\n    uint32 public product_id = 0;\r\n    uint32 public partipant_id = 0;\r\n    uint32 public owner_id = 0;\r\n    \r\n    struct product {\r\n        string modelNumber;\r\n        string partNumber;\r\n        string serialNumber;\r\n        address productOwner;\r\n        uint32 cost;\r\n        uint32 mfgTimeStamp;\r\n    }\r\n    \r\n    mapping(uint32 => product ) public products;\r\n    \r\n    struct participant {\r\n        string userName;\r\n        string password;\r\n        string participantType;\r\n        address participantAdderss;\r\n    }\r\n    mapping(uint32 => participant ) public participants;\r\n    \r\n    struct ownership {\r\n        uint32 productId;\r\n        uint32 ownerId;\r\n        uint32 trxTimeStamp;\r\n        address productOwner;\r\n    }\r\n    mapping(uint32 => ownership) public ownerships;\r\n    mapping(uint32 => uint32[]) public productTrack;\r\n    \r\n    \r\n    event TransferOwnership(uint32 productId);\r\n    \r\n    function addParticipant(string memory _name, string memory _pass, address _pAdd, string memory _pType) public returns (uint32) {\r\n     uint32 userId = partipant_id++;\r\n     participants[userId].userName = _name;\r\n     participants[userId].password = _pass;\r\n     participants[userId].participantAdderss = _pAdd;\r\n     participants[userId].participantType = _pType;\r\n    \r\n     return userId;\r\n    }\r\n    function getParticipant(uint32 _product_id) public view returns (string memory, address, string memory) {\r\n        return (participants[_product_id].userName,\r\n                participants[_product_id].participantAdderss,\r\n                participants[_product_id].participantType);\r\n    }\r\n    \r\n    function addProduct(uint32 _ownerId, \r\n                string memory _modelNumber, \r\n                string memory _partNumber,\r\n                string memory _seriaNumber, \r\n                uint32 _productCost) public returns (uint32) {\r\n        if(keccak256(abi.encodePacked(participants[_ownerId].participantType)) == keccak256(\"seller\")) {\r\n            uint32 productId = product_id++;\r\n            \r\n            products[productId].modelNumber = _modelNumber;\r\n            products[productId].partNumber = _partNumber;\r\n            products[productId].serialNumber = _seriaNumber;\r\n            products[productId].cost = _productCost;\r\n            products[productId].productOwner = participants[_ownerId].participantAdderss;\r\n            products[productId].mfgTimeStamp = uint32(block.timestamp);\r\n            \r\n            return productId;\r\n        }\r\n        \r\n        return 0;\r\n    }\r\n    \r\n    modifier onlyOwner(uint32 _productId) {\r\n        require(msg.sender == products[_productId].productOwner, \"\");\r\n        _;\r\n        \r\n    }\r\n    \r\n    function getProduct(uint32 _productId) public view returns (string memory, string memory, string memory, uint32,address,uint32){\r\n        return (products[_productId].modelNumber,\r\n                products[_productId].partNumber,\r\n                products[_productId].serialNumber,\r\n                products[_productId].cost,\r\n                products[_productId].productOwner,\r\n                products[_productId].mfgTimeStamp);\r\n    }\r\n    \r\n    function newOwner(uint32 _user1Id, uint32 _user2Id, uint32 _prodId) onlyOwner(_prodId) public returns (bool) {\r\n        participant memory p1 = participants[_user1Id];\r\n        participant memory p2 = participants[_user2Id];\r\n        uint32 ownership_id = owner_id++;\r\n        \r\n        if(keccak256(abi.encodePacked(p1.participantType)) == keccak256(\"seller\")\r\n           && keccak256(abi.encodePacked(p2.participantType)) == keccak256(\"server\")){\r\n           ownerships[ownership_id].productId = _prodId;\r\n           ownerships[ownership_id].productOwner = p2.participantAdderss;\r\n           ownerships[ownership_id].ownerId = _user2Id;\r\n           ownerships[ownership_id].trxTimeStamp = uint32(block.timestamp);\r\n           products[_prodId].productOwner = p2.participantAdderss;\r\n           productTrack[_prodId].push(ownership_id);\r\n           emit TransferOwnership(_prodId);\r\n           \r\n           return (true);\r\n         }\r\n         else if(keccak256(abi.encodePacked(p1.participantType)) == keccak256(\"server\")\r\n           && keccak256(abi.encodePacked(p2.participantType)) == keccak256(\"testing\")) {\r\n           ownerships[ownership_id].productId = _prodId;\r\n           ownerships[ownership_id].productOwner = p2.participantAdderss;\r\n           ownerships[ownership_id].ownerId = _user2Id;\r\n           ownerships[ownership_id].trxTimeStamp = uint32(block.timestamp);\r\n           products[_prodId].productOwner = p2.participantAdderss;\r\n           productTrack[_prodId].push(ownership_id);\r\n           emit TransferOwnership(_prodId);\r\n           \r\n           return (true);\r\n         }\r\n         else if(keccak256(abi.encodePacked(p1.participantType)) == keccak256(\"testing\")\r\n           && keccak256(abi.encodePacked(p2.participantType)) == keccak256(\"sender\")) {\r\n           ownerships[ownership_id].productId = _prodId;\r\n           ownerships[ownership_id].productOwner = p2.participantAdderss;\r\n           ownerships[ownership_id].ownerId = _user2Id;\r\n           ownerships[ownership_id].trxTimeStamp = uint32(block.timestamp);\r\n           products[_prodId].productOwner = p2.participantAdderss;\r\n           productTrack[_prodId].push(ownership_id);\r\n           emit TransferOwnership(_prodId);\r\n           \r\n           return (true);\r\n           }\r\n         else if(keccak256(abi.encodePacked(p1.participantType)) == keccak256(\"sender\")\r\n           && keccak256(abi.encodePacked(p2.participantType)) == keccak256(\"buyer\")) {\r\n           ownerships[ownership_id].productId = _prodId;\r\n           ownerships[ownership_id].productOwner = p2.participantAdderss;\r\n           ownerships[ownership_id].ownerId = _user2Id;\r\n           ownerships[ownership_id].trxTimeStamp = uint32(block.timestamp);\r\n           products[_prodId].productOwner = p2.participantAdderss;\r\n           productTrack[_prodId].push(ownership_id);\r\n           emit TransferOwnership(_prodId);\r\n           \r\n           return (true);\r\n           }\r\n           \r\n      return (false);\r\n    }\r\n    \r\n    function getProvenance(uint32 _prodId) external view returns (uint32[] memory) {\r\n        \r\n        return productTrack[_prodId];\r\n    }\r\n    \r\n    function getOwnership(uint32 _regId) public view returns (uint32,uint32,address,uint32) {\r\n        \r\n        ownership memory r = ownerships[_regId];\r\n        \r\n         return (r.productId, r.ownerId, r.productOwner, r.trxTimeStamp);\r\n    }\r\n    \r\n    function aythenticateParticipant(uint32 _uid,\r\n        string memory _uname,\r\n        string memory _pass,\r\n        string memory _utype) public view returns (bool){\r\n        if(keccak256(abi.encodePacked(participants[_uid].participantType)) == keccak256(abi.encodePacked(_utype))) {\r\n            if(keccak256(abi.encodePacked(participants[_uid].userName)) == keccak256(abi.encodePacked(_uname))) {\r\n                if(keccak256(abi.encodePacked(participants[_uid].password)) == keccak256(abi.encodePacked(_pass))) {\r\n                    return (true);\r\n                }\r\n            }\r\n        }\r\n        \r\n        return (false);\r\n    }\r\n}",
  "sourcePath": "E:/workspace/Secondhand/contracts/Second.sol",
  "compiler": {
    "name": "solc",
    "version": "0.7.0+commit.9e61f92b.Emscripten.clang"
  },
  "schemaVersion": "3.3.0",
  "updatedAt": "2020-10-20T12:36:09.289Z",
  "devdoc": {
    "kind": "dev",
    "methods": {},
    "version": 1
  },
  "userdoc": {
    "kind": "user",
    "methods": {},
    "version": 1
  }
}